:020000040800F2
:10000000C01D002001010008090100080B010008C3
:100010000D0100080F010008110100080000000098
:1000200000000000000000000000000013010008B4
:100030001501000800000000170100081901000860
:100040001B0100081B0100081B0100081B01000820
:100050001B0100081B0100081B0100081B01000810
:100060001B0100081B0100081B010008810F00088C
:10007000A10F0008C10F0008E10F000801100008DF
:1000800021100008411000081B0100081B01000896
:100090001B0100081B0100081B0100081B010008D0
:1000A0001B0100081B0100081B0100081B010008C0
:1000B000211B0008511C0008811D00081B010008BD
:1000C0001B0100081B0100081B0100081B010008A0
:1000D0001B0100081B0100081B0100085D2000082F
:1000E0001B0100081B0100081B010008DFF80CD0F1
:1000F00000F066FC0048004701310008C01D0020E8
:100100000648804706480047FEE7FEE7FEE7FEE7B1
:10011000FEE7FEE7FEE7FEE7FEE7FEE7C11A00089E
:10012000ED000008F0B480EA0102D40F4200B2EB07
:10013000410F02D20246084611464A0042D0C30D82
:10014000DDB2C1F3C752AD1A202D35DAC1F3160165
:1001500041F4000204B15242C5F1200602FA06F150
:100160002A411044B3EBD05F23D0C4B1012DA0EBE2
:10017000C35009DCF0BC4FF0004202EAC352DBB2CC
:1001800000F5000000F032BB400000F1807000EB91
:10019000C350A0F1807040EAD170490009E04908DD
:1001A00041EAC071A0EBC35000F50000400800EB2D
:1001B000C350F0BC00F011BB6142012202EB4101CF
:1001C000001BF6E7F0BC704781F00041AAE780F021
:1001D0000040A7E780EA010210B502F000434000AA
:1001E00022D04A001FD0010E01EB1261C0F356006D
:1001F000C2F3560240F4000042F40002A0FB0220C9
:1002000000047F39140400D0401C50EA124001D48D
:100210004000491EC2B20C0604EBD010401C40083E
:10022000802A02D003E0002010BD20F00100002948
:1002300000DA0020184310BD30B480EA010202F059
:10024000004530F0004221F0004013D090B1C30DC2
:10025000D40DC2F31601C0F31600E41A41F40001F4
:1002600040F400027D34914201D3641C00E0490057
:10027000002C02DA30BC002070474FF4000000234D
:10028000914201D3891A034340084FEA4101F7D153
:1002900051B1914202D14FF0004105E002D24FF03E
:1002A000010101E06FF0010103EBC450284430BCB0
:1002B00000F093BA2DE9FE4F804681EA0300C00F9B
:1002C0000C46009021F0004123F00045B8EB0200FD
:1002D000A94105D24046214690461C460B4602469F
:1002E00023F00040104347D0270DC7F30A00C3F3A3
:1002F0000A510290401A019040286BDAC3F31300B0
:1003000040F4801B0098924620B10023D2EB030AF0
:1003100063EB0B0B01985946C0F14002504600F0C8
:100320002BFA06460D4650465946019A00F043FA0C
:1003300010EB08006141002487EA115284EAE77358
:100340001A4340D0009A62B3019A012A4FEA075239
:1003500015DC001B61EB02014FF0004202EA07527C
:10036000CDE90042001C41F5801132462B4600F0D9
:100370007AFA03B0BDE8F08F40462146F9E7001B4A
:1003800061EB0201001C41F5801300185B4120184D
:10039000A2F5001747EB030140EAD570B6196D418D
:1003A00011E06D084FEA360645EAC0754FEA07527C
:1003B000001B61EB0201001C41F5801149084FEA66
:1003C00030000019514132462B4603B0BDE8F04FD2
:1003D00000F03ABA0098012240000023D0EB02025C
:1003E00063EBE073009821464FEAE074B8EB00003D
:1003F00061EB0401E9E783F000435BE781F0004132
:1004000058E72DE9FE4F81EA030404F0004421F08F
:10041000004100944FF0000B23F0004350EA010428
:100420005ED052EA03045BD0C3F30A54C1F30A5509
:100430002C44A4F2F3340194A0FB0254C1F3130141
:1004400041F48011C3F3130343F4801301FB02440E
:1004500000FB034E840A970A44EA815447EA835713
:10046000A4FB076802958D0A05FB07854FEA932CCC
:1004700004FB0C542705029D4FEA065847EA16373D
:10048000B5EB08056EEB070C870E920E47EA811755
:1004900042EA8312A7FB0201B6EB0B0164EB0004F6
:1004A0002B0D43EA0C335E1844EB1C50DA465146E0
:1004B000E7FB0201C5F313044FEA0B3343EA14537D
:1004C0004FEA0432019C43EA0603A4F10C040294AF
:1004D000009CCDE900B400F0C6F903B0BDE8F08F90
:1004E00000200146F9E72DE9F04D81EA030404F00C
:1004F000004B21F0004514464FF0000A23F0004164
:1005000050EA050220D054EA01021DD0C5F30A5773
:100510000246C5F31303C1F31300C1F30A5640F4B6
:10052000801543F48013A7EB0608101BD64608F28B
:10053000FD3873EB050002D308F1010801E09218C1
:100540005B41B8F1000F03DA00200146BDE8F08DF1
:1005500000204FF48011064684460EE0171B73EB13
:10056000050705D3121B63EB050306434CEA010C98
:1005700049084FEA300092185B4150EA0107EDD17B
:1005800052EA030012D082EA040083EA050108431C
:1005900005D0101BAB4106D20122002306E0002249
:1005A0004FF0004302E06FF0010253101AEB060017
:1005B0004CEB085110EB0A0041EB0B01BDE8F04D8C
:1005C00000F042B9C10F80EAE0700844CA079623E0
:1005D000002100F00BB996230022114600F006B965
:1005E0000EB5C10F80EAE0700844CA07002140F24E
:1005F00033438DE80E000A460B4600F034F903B091
:1006000000BD0EB540F2334102910021CDE9001149
:100610000A460B4600F027F903B000BD70B5C1F3E0
:100620000A5201F000450024C1F3130140F2FF33E8
:1006300041F480119A4201DA002070BD40F2334348
:100640009A42A2F2334203DC524200F0A4F800E0E6
:1006500090402C43F1D0404270BDC1F30A5210B516
:10066000C1F3130140F2FF3341F480119A4201DAE1
:10067000002010BD40F233439A42A2F2334203DC21
:10068000524200F088F810BD904010BD00F00042CA
:1006900030F000400AD0C10D01F56071C0F31600C2
:1006A00042EA0151C2084007114370470020014649
:1006B000704701F0004330B421F0004150EA0102DC
:1006C00006D00A0DA2F56072C1F31301002A02DC04
:1006D00030BC00207047440F44EAC104C100E01858
:1006E00030BC00EBC25000F078B830B50B46014684
:1006F00000202022012409E021FA02F59D4205D3C1
:1007000003FA02F5491B04FA02F52844151EA2F16A
:100710000102F1DC30BD2DE9F05F05460020924674
:100720009B4688460646814640241BE028464146B3
:100730004746224600F02FF853465A46C01A9141C8
:1007400010D311461846224600F016F82D1A67EB12
:1007500001084F4622460120002100F00DF817EB5A
:1007600000094E41201EA4F10104DFDC4846314659
:100770002A464346BDE8F09F202A04DB203A00FACF
:1007800002F1002070479140C2F1200320FA03F3E8
:10079000194390407047202A04DB203A21FA02F0E6
:1007A0000021704721FA02F3D040C2F120029140AB
:1007B000084319467047202A06DBCB17203A41FA36
:1007C00002F043EAE07306E041FA02F3D040C2F1DE
:1007D000200291400843194670470029A8BF70477E
:1007E000401C490008BF20F00100704710B4B0FA67
:1007F00080FC00FA0CF050EA010404BF10BC704702
:1008000049B1CCF1200421FA04F411FA0CF118BF1B
:10081000012121430843A3EB0C01CB1D4FEA0061EA
:100820004FEA102042BF002010BC704700EBC350BD
:1008300010440029A4BF10BC7047401C490008BFE9
:1008400020F0010010BC704710B5141E73F10004B5
:1008500008DA401C41F1000192185B411A4301D1B2
:1008600020F0010010BD2DE9F04D92469B4611B1DC
:10087000B1FA81F202E0B0FA80F220329046FFF73E
:100880007BFF04460F4640EA0A0041EA0B0153464B
:100890005A46084313D0114653EA010019D0C8F153
:1008A00040025046FFF777FF05460E465046594630
:1008B0004246FFF761FF084305D0012004E02046CF
:1008C0003946BDE8F08D0020054346EAE0762C432A
:1008D00037430A986305E40AA0EB08000022FD0AEA
:1008E00044EA47540A3002D500200146E9E70105F1
:1008F00010196941DDE9084500196941BDE8F04D6D
:10090000A2E770B521F0004303430CD0C1F30A55B0
:100910000024D5EB040564EB0403D617AD1AB341EC
:1009200002DB0020014670BD201841EB025170BD72
:10093000C1F30A52C1F3130140F2FF3341F48011B5
:100940009A4202DA00200146704740F233439A424D
:10095000A2F2334202DC5242FFF71DBFFFF70CBF89
:1009600030B5041E71F1000404DB4FF00044404236
:1009700064EB0101141E73F1000405DB1C464FF00B
:100980000043524263EB04038B4208BF824230BDF6
:1009900030B5041E71F1000404DB4FF00044404206
:1009A00064EB0101141E73F1000405DB1C464FF0DB
:1009B0000043524263EB0403994208BF904230BDAA
:1009C000064C074D06E0E06840F0010394E807009C
:1009D00098471034AC42F6D3FFF78CFB1033000875
:1009E0003033000870B505460C46600095FBF0F00A
:1009F00086B20CE0012009490860204602F00FFA97
:100A000000200749C1F8BC01204602F008FA301E58
:100A1000A6F101018EB2EDD170BD0000BC012142F2
:100A2000000021422DE9F04106460D461446632C94
:100A300001DD632405E024B9284602F0F0F9BDE8A1
:100A4000F08123E001201549086005FB04F06428CB
:100A500002DD05FB04F000E06420642190FBF1F767
:100A6000384602F0DCF900200C490860C4F164004B
:100A70006843642803DDC4F16400684300E0642037
:100A8000642190FBF1F7384602F0C9F9301EA6F157
:100A90000101CEB2D6D100BFD1E70000BC01214296
:100AA00008B50121042000F03FFC4FF40040ADF8F0
:100AB000000010208DF8030003208DF80200694625
:100AC000044800F0E3FA4FF40041024800F0BBFB99
:100AD00008BD0000000801402DE9F04F91B0054627
:100AE00089461646002400200E900F901090304644
:100AF000FFF7CCFD0746C94AC94BFFF782FC824687
:100B0000FFF7D7FD064631462846FFF70BFB834625
:100B1000C449FFF791FB8246FFF7B8FD0022C24BA4
:100B2000CDE90C01FFF7C6FB0746FFF777FD0E90F6
:100B30003046FFF7ABFDCDE906014846FFF7A6FDBD
:100B40000746BA4ABA4BFFF75CFC85F0004ACDE98C
:100B500002015046FFF79AFD07460022B24BFFF70D
:100B600050FCCDE90001DDE90223FFF744FCCDE9AB
:100B70000401DDE90623FFF79DFB4FF00042AD4B7A
:100B8000CDE90801FFF7AFFC0022A74BCDE90A0130
:100B9000FFF790FBCDE90C01FFF740FD0F903046C9
:100BA000FFF774FDCDE906014846FFF76FFD0746E4
:100BB0009E4A9F4BFFF725FC85F0004ACDE90201D4
:100BC0005046FFF763FD07460022974BFFF719FCDD
:100BD000CDE90001DDE90223FFF76CFBCDE904015B
:100BE000DDE90623FFF766FB4FF00042914BCDE9AC
:100BF0000801FFF778FC00228B4BCDE90A01FFF7D3
:100C000059FBCDE90C01FFF709FD109000214FF0D1
:100C1000804001F050F90021874801F04CF9002193
:100C2000864801F048F9601E854988704870087050
:100C30000E98002805DD012082490860804908706F
:100C400002E000207F4908600F98002806DA0120A2
:100C50007C49091F08607A49487003E000207949FF
:100C6000091F08601098002806DD01207549083921
:100C700008607349887003E00020724908390860F1
:100C8000002411E00EA850F82400002804DA0EA871
:100C900050F82400404202E00EA850F824006A49AF
:100CA00041F82400601CC4B2032CEBDB66480068EA
:100CB0006549496888420DD9634800686249896876
:100CC000884203D900206149087010E002205F4982
:100CD00008700CE05C4880685B494968884203D929
:100CE00002205A49087002E001205849087056480D
:100CF0005649097850F8210055490860002415E04C
:100D00005149524A127851F82200FFF764FC074615
:100D10004D4951F82400FFF75EFC80463946FFF745
:100D20008BFA4C4941F82400601CC4B2032CE7DB69
:100D300000F086FC46490968884211D94448006899
:100D40004FF44861C1EB500020B141480068C1EB4D
:100D5000500002E03E48006840083F49088003E038
:100D600000F06EFC3C4908803C480078002851D0D7
:100D70003046FFF78BFC0746394A3A4BFFF7B3FB87
:100D8000CDE90C014846FFF781FC82468B46284698
:100D9000FFF77CFCCDE90A01DDE90C01CDE900ABF0
:100DA000CDE9020130A0DDE90A2301F03DFB35A0C9
:100DB0000EA90EC901F038FB234883684268016818
:100DC00037A001F031FB2048204A127850F8221059
:100DD0003AA001F029FB1F498868FFF757FC074636
:100DE00088461C494868FFF751FCCDE90C011949B8
:100DF0000868FFF74BFC82460B46CDE90278DDE937
:100E00000C015246CDE9000130A001F00DFB1CA001
:100E100001F00AFB11B0BDE8F08F00009A99999992
:100E20009999F93F5CE75F3D0000E03F85EB51B8E1
:100E30001E85EB3FEBFCAB3F000400400008004088
:100E40001500002094812142581900203000002014
:100E50002C00002018000020320000201400002088
:100E60008FC2F5285C8FFA3F52617720646174610C
:100E70003A09252E306609252E306609252E306662
:100E80000D0A000056616C75655F50756C73653AAC
:100E900009256C6409256C6409256C640D0A000041
:100EA000537465703A2020202020202009256C648E
:100EB00009256C6409256C640D0A00004D61785F9A
:100EC000537465703A09256C640D0A00436F6566BA
:100ED00066696369656E743A0925660925660925A0
:100EE000660D0A0000F0010141B10121204A1160A4
:100EF000204AC2F88011204A116007E000211C4AF4
:100F000011601C4AC2F880111B4A1160C0F34001F5
:100F100051B10121164A121F1160164AC2F88411FC
:100F2000154A083A116009E00021114A121F1160A8
:100F3000104AC2F88411104A083A1160C0F38001C7
:100F400051B101210A4A083A11600A4AC2F88811CF
:100F5000094A0C3A116009E00021054A083A11607B
:100F6000044AC2F88811044A0C3A11607047000024
:100F7000A4812142008021429C012142704700004F
:100F800010B50548006800F00F040348446020468F
:100F9000FFF7F4FF10BD00000000024070470000A2
:100FA00010B505480068C0F30314200102494860E9
:100FB0002046FFF7F3FF10BD00000240704700001D
:100FC00010B505480068C0F30324200202494860B8
:100FD0002046FFF7F3FF10BD0000024070470000FD
:100FE00010B505480068C0F3033420030249486087
:100FF0002046FFF7F3FF10BD0000024070470000DD
:1010000010B505480068C0F3034420040249486055
:101010002046FFF7F3FF10BD0000024070470000BC
:1010200010B505480068C0F3035420050249486024
:101030002046FFF7F3FF10BD00000240704700009C
:1010400010B505480068C0F30364200602494860F3
:101050002046FFF7F3FF10BD0000024000200149C9
:101060000870704710000020002001490870704788
:10107000140000200120014908607047BC81214212
:101080000020014908607047BC8121422DE9F041F0
:10109000024600250026002000230024002791F8A6
:1010A00003C00CF00F0591F803C00CF0100CBCF15C
:1010B000000F03D091F802C04CEA050591F800C07A
:1010C000BCF1000F31D0146800202BE04FF0010C70
:1010D0000CFA00F3B1F800C00CEA03069E4220D1DE
:1010E00083004FF00F0C0CFA03F7BC4305FA03FC26
:1010F0004CEA040491F803C0BCF1280F06D14FF06C
:10110000010C0CFA00FCC2F814C00AE091F803C00C
:10111000BCF1480F05D14FF0010C0CFA00FCC2F8ED
:1011200010C0401C0828D1D31460B1F800C0BCF135
:10113000FF0F34DD546800202EE000F1080C4FF062
:10114000010808FA0CF3B1F800C00CEA03069E424D
:1011500021D183004FF00F0C0CFA03F7BC4305FAC2
:1011600003FC4CEA040491F803C0BCF1280F05D13C
:1011700000F1080C08FA0CF8C2F8148091F803C0CA
:10118000BCF1480F07D100F1080C4FF0010808FA34
:101190000CF8C2F81080401C0828CED35460BDE87B
:1011A000F0810000F0B50A4600230024002100254C
:1011B00000F00046B6F1004F02D11D4EF16901E08A
:1011C0001B4E7168C0F3034583B200F44016B6F5B8
:1011D000401F08D121F07061154E766826F07066C8
:1011E000134F7E6012E000F48016B6F5801F06D122
:1011F000032606FA05F4A14341F0706106E0460DAE
:10120000360103FA06F6B14341F0706122B1460D92
:10121000360103FA06F6314300F00046B6F1004FFE
:1012200002D1034EF16101E0014E7160F0BD00009A
:10123000000001400246002093680B400BB10120E2
:1012400000E0002070474161704701617047000075
:1012500008B50121042000F067F80220ADF8000075
:1012600048208DF8030069460148FFF70FFF08BDCD
:101270000008014070B5002100230F22C47804B398
:10128000154C246804F4E064C4F5E064210AC1F15B
:101290000403CA40447804FA03F1847814402143DB
:1012A00009010E4C0678A155047804F01F050124AD
:1012B000AC4005786D11AD0005F1E025C5F80041A1
:1012C00009E0047804F01F050124AC40044D0678C1
:1012D000761145F8264070BD0CED00E000E400E01A
:1012E00080E100E00146024830F81100704700003C
:1012F0005800002002480349097850F8210070473F
:10130000581900203000002029B1064AD269024352
:10131000044BDA6104E0034AD2698243014BDA618B
:10132000704700000010024029B1064A926902434A
:10133000044B9A6104E0034A92698243014B9A612B
:10134000704700000010024030B500210022002448
:1013500000232D4D6D6805F00C0121B1042905D045
:10136000082923D105E0294D056022E0274D0560BD
:101370001FE0254D6D6805F47012234D6D6805F46E
:101380008034022505EB92421CB9214D554305607E
:101390000BE01D4D6D6805F400351DB11C4D554326
:1013A000056002E0194D5543056002E0174D0560E8
:1013B00000BF00BF144D6D6805F0F0010909154D1F
:1013C0006B5C0568DD4045600F4D6D6805F4E061BC
:1013D000090A104D6B5C4568DD4085600A4D6D68FB
:1013E00005F46051C90A0B4D6B5C4568DD40C56072
:1013F000054D6D6805F44041890B074D6B5CC56870
:10140000B5FBF3F5056130BD0010024000127A0013
:1014100000093D003C0000204C0000202DE9F04177
:1014200005460E461446600095FBF0F087B20BE0CF
:101430003046FFF757FD204601F0F1FC0020FFF792
:1014400051FD204601F0EBFC381EA7F101018FB2DF
:10145000EED1BDE8F0812DE9F04106460F46154674
:101460001C46632C01DD632408E03CB90020FFF733
:1014700039FD284601F0D3FCBDE8F08123E0384671
:10148000FFF730FD05FB04F0642802DD05FB04F0E6
:1014900000E06420642190FBF1F8404601F0BFFCBD
:1014A0000020FFF71FFDC4F164006843642803DDDA
:1014B000C4F16400684300E06420642190FBF1F80B
:1014C000404601F0ACFC301EA6F10101CEB2D6D1EF
:1014D00000BFD1E708B501210C20FFF725FF4FF42D
:1014E0006070ADF8000010208DF8030003208DF827
:1014F000020069461548FFF7C9FD4FF460711348B3
:10150000FFF7A1FE0720ADF8000010208DF80300C2
:1015100003208DF8020069460C48FFF7B7FD07214C
:101520000A48FFF790FEB020ADF8000010208DF8BB
:10153000030003208DF8020069460548FFF7A6FD69
:10154000B0210348FFF77FFE08BD0000000C0140FA
:10155000000801402DE9F04F8DB04FF0000A00BFA8
:1015600053E02D480088FFF74CF8CDE90A012B49DC
:10157000B1F90010AAEB0100FFF724F80090284809
:10158000006880F0004B58460099FEF723FE01905A
:10159000FFF77CF8CDE9020101F05EFC80460022F5
:1015A000204BFEF787FE02460B46CDE904010020E2
:1015B0001C49FEF798FFCDE908011B490988164A26
:1015C0001288881AFFF70CF8CDE90601DDE9082337
:1015D000FEF717FF0646DDE90A23FEF76BFE044619
:1015E000FFF73BF8114921F81A001148007840B183
:1015F0005046FFF777FE0446224651460DA000F004
:1016000013FF0AF101001FFA80FABAF5486FA8DB50
:101610000DB0BDE8F08F00000E0000200C0000208F
:10162000080000200000F03F0400002058000020C7
:10163000100000204E4F25643A0925640D0A000071
:101640004FF4486070470000014800887047000070
:101650000400002001480088704700000E000020B0
:10166000024A1080024A11807047000004000020E6
:101670000E00002010B500F001F810BD0CB50020E0
:10168000019000903348006840F480303149086090
:1016900000BF3048006800F4003000900198401C02
:1016A0000190009818B90198B0F5A06FF1D12948C0
:1016B000006800F4003010B10120009001E000202B
:1016C00000900098012843D12348006840F01000A2
:1016D000214908600846006820F0030008600846B9
:1016E000006840F0020008601A48406819494860E4
:1016F0000846406848600846406840F4806048609A
:101700000846406820F47C1048600846406840F471
:10171000E81048600846006840F08070086000BF2C
:101720000C48006800F000700028F9D009484068B3
:1017300020F00300074948600846406840F0020076
:10174000486000BF0348406800F00C000828F9D149
:101750000CBD000000100240002002402DE9F041C5
:1017600000214FF0804000F0A6FB0021294800F046
:10177000A2FB0021284800F09EFBFFF781FC00201F
:10178000FFF7B0FD254991FBF0F42046FEF728FF56
:1017900005460022224BFEF78DFD0746FEF75DFF52
:1017A00080B22049888048800880084601884FF030
:1017B000804000F0FCFB1B484188164800F0F7FB16
:1017C00018488188144800F0F2FB00214FF0804057
:1017D00000F0EFFB00210F4800F0EBFB00210E486A
:1017E00000F0E7FB1048006818B10121880700F0FD
:1017F00062FB0D48406818B10121064800F05BFB10
:101800000948806818B10121034800F054FBBDE885
:10181000F0810000000400400008004040548900AE
:101820000000E03F240000205819002000B589B0D6
:1018300001210820FFF778FD01210846FFF774FD1C
:1018400001216F48FFF7AEFC4FF23800ADF82000E1
:1018500010208DF8230002208DF8220008A9694885
:10186000FFF714FC38216748FFF7EFFC4FF4704195
:101870006448FFF7EAFC01210846FFF745FD012116
:101880000220FFF741FD01210420FFF73DFD01216A
:101890000520FFF749FD01210920FFF745FD412003
:1018A000ADF8200018208DF8230002208DF82200CA
:1018B00008A95548FFF7EAFB4020ADF820001820A2
:1018C0008DF8230002208DF8220008A94D48FFF76B
:1018D000DDFB40F2E730ADF818000720ADF814004A
:1018E0000020ADF81A00ADF8160005A94FF08040B1
:1018F00000F062FB05A9454800F05EFB05A94448DD
:1019000000F05AFB6020ADF804000120ADF806009D
:101910000020ADF80C000520ADF80A0001A98007F1
:1019200000F0F0FA0821C80600F038FB01A937489A
:1019300000F0E8FA0821354800F030FB01A93448EE
:1019400000F0E0FA0821324800F028FB1C208DF856
:10195000000000208DF801008DF8020001208DF8B4
:1019600003006846FFF786FC1D208DF8000000206C
:101970008DF8010001208DF802008DF80300684603
:10198000FFF778FC1E208DF8000000208DF8010084
:1019900002208DF8020001208DF803006846FFF751
:1019A00069FC0121880700F083FA0121174800F043
:1019B0007FFA0121164800F07BFA012211469007B8
:1019C00000F096FA01221146104800F091FA012227
:1019D00011460F4800F08CFA00214FF0804000F0D3
:1019E0006AFA0021094800F066FA0021084800F070
:1019F00062FA002211461046FFF76EF809B000BDEA
:101A000000023000000C01400008014000040040CA
:101A100000080040014604291ED003DC39B1022928
:101A20003BD10EE0082923D0102936D12BE000202D
:101A3000214A1060214AC2F8B4011F4A08321060DE
:101A400036E001201C4A106000201C4AC2F8B40194
:101A5000194A083210602BE00020174A106001205C
:101A6000164AC2F8B4010020134A083210601FE081
:101A70000120114A1060114AC2F8B40100200E4A38
:101A80000832106014E001200B4A10600B4AC2F8C3
:101A9000B401094A083210600AE00120064A1060C9
:101AA000064AC2F8B401044A0832106000207047A8
:101AB00000BF0120FBE70000B081214200802142ED
:101AC00010B51348006840F001001149086008464D
:101AD0004068104908400E494860084600680E49B1
:101AE00008400B4908600846006820F48020086020
:101AF0000846406820F4FE0048604FF41F008860EC
:101B0000FFF7B8FD4FF000600449086010BD000009
:101B1000001002400000FFF8FFFFF6FE08ED00E0B5
:101B20002DE9F05F0121880700F0D1F900287DD070
:101B30000121880700F0BCF93D480068401E3C497F
:101B4000086020B900214FF0804000F0B4F9384817
:101B50003849097850F8210037490968091A374887
:101B60000088801E81422DD23149324A127831F8E4
:101B70002210314A1288511A491C88B2FFF7B2FB71
:101B80008346FEF728FD82462D4801685046FEF741
:101B900021FB814649462B48FEF74EFB0446FEF7E3
:101BA00075FD07460022284BFEF784FB0546FEF72D
:101BB00054FD26490880084601884FF0804000F017
:101BC000F6F933E01A481B49097850F821101B48F0
:101BD0000088801E814229D21549164A127831F8B0
:101BE0002210491C88B2FFF77DFB8346FEF7F3FC09
:101BF0008246134801685046FEF7ECFA8146494692
:101C00001048FEF719FB0446FEF740FD0746002288
:101C10000D4BFEF74FFB0546FEF71FFD0B490880F5
:101C2000084601884FF0804000F0C1F9BDE8F09F00
:101C300058190020300000202C0000203200002025
:101C4000180000204054094B0000E03F2400002011
:101C50002DE9F05F0121414800F039F900287AD0E0
:101C600001213E4800F024F93D484068401E3C49AF
:101C7000486018B90021394800F01DF93848394941
:101C8000097850F8210038490968091A374800884E
:101C9000801E81422CD23249324A127831F8221009
:101CA000314A1288511A491C88B2FFF71BFB834640
:101CB000FEF791FC82462E4841685046FEF78AFAAC
:101CC000814649462B48FEF7B7FA0446FEF7DEFC8C
:101CD00007460022284BFEF7EDFA0546FEF7BDFC4D
:101CE00026494880084641881C4800F060F932E0E7
:101CF0001B481C49097850F821101C480088801E98
:101D0000814228D21649174A127831F82210491C0C
:101D100088B2FFF7E7FA8346FEF75DFC8246144877
:101D200041685046FEF756FA814649461148FEF78B
:101D300083FA0446FEF7AAFC074600220E4BFEF784
:101D4000B9FA0546FEF789FC0C49488008464188E7
:101D5000024800F02CF9BDE8F09F000000040040AC
:101D600058190020300000202C00002032000020F4
:101D7000180000204054094B0000E03F24000020E0
:101D80002DE9F05F0121414800F0A1F800287AD048
:101D900001213E4800F08CF83D488068401E3C49D7
:101DA000886018B90021394800F085F83848394969
:101DB000097850F8210038490968091A374800881D
:101DC000801E81422CD23249324A127831F82210D8
:101DD000314A1288511A491C88B2FFF783FA8346A8
:101DE000FEF7F9FB82462E4881685046FEF7F2F96D
:101DF000814649462B48FEF71FFA0446FEF746FC8B
:101E000007460022284BFEF755FA0546FEF725FC4B
:101E100026498880084681881C4800F0C8F832E0CE
:101E20001B481C49097850F821101C480088801E66
:101E3000814228D21649174A127831F82210491CDB
:101E400088B2FFF74FFA8346FEF7C5FB8246144877
:101E500081685046FEF7BEF9814649461148FEF7B3
:101E6000EBF90446FEF712FC074600220E4BFEF784
:101E700021FA0546FEF7F1FB0C4988800846818867
:101E8000024800F094F8BDE8F09F00000008004010
:101E900058190020300000202C00002032000020C3
:101EA000180000204054094B0000E03F24000020AF
:101EB000CA430282704721B1028842F001020280C7
:101EC00004E002884FF6FE731A400280704730B576
:101ED0000246002000230024158A05EA01039589A3
:101EE00005EA010413B10CB1012000E0002030BD6F
:101EF0001AB183890B43838102E083898B438381F9
:101F00007047000070B5002400220023058C4FF6B6
:101F1000FE7635400584028C8388048B4FF68F75DE
:101F20002C40B51E2C400D882C43751E2A400D896F
:101F30002A434D882A43144DA8420BD0134DA84282
:101F400008D0134DA84205D0124DA84202D0124D20
:101F5000A84213D14FF6F7752A404D892A434FF610
:101F6000FB752A408D882A434FF6FF652B404FF6BC
:101F7000FF552B408D892B43CD892B4383800483D0
:101F8000CD888586028470BD002C0140003401405C
:101F90000040014000440140004801400A46002141
:101FA000018B4FF6F7731940114301837047818508
:101FB0007047818470470000002202881D4B9842C0
:101FC0000ED01D4B98420BD0B0F1804F08D01B4B68
:101FD000984205D01A4B984202D01A4B984204D12D
:101FE0004FF68F731A404B881A43174B984207D00D
:101FF000164B984204D04FF6FF431A40CB881A4341
:1020000002808B8883850B8803850A4B98420BD00E
:10201000094B984208D00E4B984205D00D4B984280
:1020200002D00D4B984201D10B7A038601238382A3
:1020300070470000002C01400034014000040040C3
:1020400000080040000C0040001000400014004058
:1020500000400140004401400048014010B540F2FA
:1020600025513C4800F01AF918B13A4800F0D2F96D
:102070006EE040F22441374800F010F9002867D0A4
:10208000344800F0C7F940F22441324800F0D5F856
:10209000314800883049897840EA0120C0F30A00BD
:1020A0002E4908602C484088C0102B49097940EA25
:1020B0004110C0F30A0029494860274880888011F0
:1020C0002549C98840EA81002349097A40EA8120EC
:1020D000C0F30A00214988601F48008940101E494A
:1020E000897A40EAC110C0F30A001C49C8601A4846
:1020F000008C194991F8221040EA0120C0F30A002F
:10210000164908611448807AC0F301101449086028
:102110001148807A0011C0F3810048600F480068C0
:10212000A0F580600D49086008464068A0F5806011
:10213000486008468068A0F5806088600846C068EE
:10214000A0F58060C86008460069A0F5806008615D
:1021500010BD00000048004064190020AC190020A8
:102160003400002000B587B001210820FFF7DCF81B
:1021700001218804FFF7C8F84FF40060ADF818009B
:1021800004208DF81B0006A92448FEF77FFF4FF4BA
:102190008060ADF8180010208DF81B0003208DF82A
:1021A0001A0006A91D48FEF771FF1D480290002085
:1021B000ADF80C00ADF80E004FF48060ADF81000E3
:1021C0000020ADF814000420ADF8120002A9154853
:1021D00000F0B4F827208DF8040002208DF80500E7
:1021E00000208DF8060001208DF8070001A8FFF7F8
:1021F00041F8012240210B4800F03AF8102109482B
:1022000000F012F8012240F22441064800F070F874
:102210000121044800F020F807B000BD000C014087
:10222000A08601000048004001F40072B2F5007F72
:1022300000D100BFCA430280704710B500220023BE
:1022400040F66A14A14200D100BF0A120124944052
:10225000A3B2DC43048010BD21B1828942F4005254
:10226000828104E082894DF6FF731A4082817047B3
:102270001AB1838A0B43838202E0838A8B43838271
:10228000704702460020B1F5007F00D100BF1388DF
:102290000B400BB1012000E00020704770B50246F2
:1022A000002400230025002040F66A16B14200D128
:1022B00000BFC1F3421501F01F03012606FA03F324
:1022C000012D02D19689334006E0022D02D1168AF3
:1022D000334001E0968A33400C12012606FA04F4DA
:1022E0001688344013B10CB1012000E0002070BD0D
:1022F000F0B50346002400260025002040F66A17AA
:10230000B94200D100BF1846C1F3421401F01F06C4
:10231000012707FA06F5012C01D10C3004E0022C4C
:1023200001D1103000E014301AB107682F43076064
:1023300002E00768AF430760F0BD00002DE9F047F9
:1023400086B005460E460024A24600BFA1460027DF
:10235000B08900B100BF2F462C8A4CF6FF700440B4
:10236000F08804432C82AC894EF6F3100440B08808
:1023700031890843718908430443AC81AC8A4FF624
:10238000FF400440B0890443AC8201A8FEF7DCFFA3
:102390001F48874202D1DDF810A001E0DDF80CA053
:1023A000A88900F4004040B10AEBCA0000EB0A1013
:1023B00031684900B0FBF1F807E00AEBCA0000EB16
:1023C0000A1031688900B0FBF1F86420B8FBF0F026
:1023D00004012009642101FB1089A88900F4004050
:1023E00040B1322000EBC900B0FBF1F000F0070073
:1023F000044308E0322000EB09106421B0FBF1F047
:1024000000F00F0004432C8106B0BDE8F087000007
:102410000038014001468888C0F308007047C1F3C6
:1024200008028280704700000FB4054B10B503A965
:10243000044A029800F05CF910BC5DF814FB00003F
:10244000DD30000850000020490050EAC12018BFCC
:1024500004204A0D18BF40F0010040F2FF72B2EBB9
:10246000515F08BF40F00200012808BF05207047F7
:102470002DE9F0414F1E00EBC7010446D1E90001F0
:1024800015461E4637F006020DD02A463346FDF7A4
:10249000B8FF7F1E04EBC703D3E90023FDF70AFF53
:1024A00037F00602F1D1022F25D0042F13D0062FCA
:1024B00018BFBDE8F0812A463346FDF7A2FFD4E9F4
:1024C0000A23FDF7F7FE2A463346FDF79AFFD4E9C3
:1024D0000823FDF7EFFE2A463346FDF792FFD4E9C5
:1024E0000623FDF7E7FE2A463346FDF78AFFD4E9C7
:1024F0000423FDF7DFFE2A463346FDF782FFD4E9C9
:102500000223FDF7D7FE2A463346FDF77AFFD4E9CA
:102510000023BDE8F041FDF7CDBE0122FEF7F1B981
:1025200040F2013200204FF0E041FEF7EAB900002E
:10253000024A00201107FEF7E4B9000001FDFFFF89
:1025400002E008C8121F08C1002AFAD1704770477C
:10255000002001E001C1121F002AFBD170470000DA
:102560000149086070470000540000202DE9FF5F1A
:1025700082B00021DDE90430020DDDF840B00343F4
:1025800018D044F61050A2F2FF32424315141198AD
:1025900001281FD0A5EB0B00401C5FEA000A4FF09A
:1025A00000064E4FDFF83891B046504615D5CAF1B7
:1025B000000413E0119801244AA3012801D16FEA15
:1025C0000B010298119AC0E90031C0E9024206B03D
:1025D000BDE8F09FCBF10000DFE704460021404A50
:1025E000491842EB0450CDE9001012E0E00707D093
:1025F00032463B4640464946FDF703FF8046894642
:1026000032463B4610461946FDF7FBFE06460F468E
:102610006410002CEAD1DDE90401DDE90023BAF100
:10262000000F06DAFDF7EDFE42464B46FDF7E9FEE8
:1026300005E0FDF758FF42464B46FDF754FF0446C0
:102640000E460022284BFEF7A3F903D84FF0FF30C7
:10265000014607E00022254B20463146FDF72AFEC1
:10266000FEF766F9102409E0002C0ADB0A22002399
:10267000FEF751F8039B30321A55641E50EA0102EE
:10268000F2D1641C039AC4F111031444119A012A73
:1026900003D0012208430DD10AE0084304D00020F2
:1026A0004FF0110B119072E7A3EB0B056D1E0DE0BF
:1026B0005B4504DD4FF0000205F1010504E003DA9B
:1026C0004FF00002A5F10105002AECD00298119903
:1026D000C0E90231C0E9004579E70000000014407C
:1026E0000000F03F300000000000F0430000E03F39
:1026F0002DE9FF4F95B09B468946064600250FE21F
:10270000252877D100242746F84A0121059400E0C6
:10271000044316F8013F203B01FA03F01042F7D1C1
:1027200030782A2811D06FF02F033078A0F13002D2
:10273000092A16D8059A44F0020402EB820203EB40
:1027400042021044761C0590EFE759F8042B0592DD
:10275000002A03DA504244F40054059044F0020485
:10276000761C30782E2816D116F8010F44F0040498
:102770002A280DD06FF02F023078A0F13003092BFA
:1027800009D807EB870302EB4303C718761CF3E76E
:1027900059F8047B761C30786C280FD006DC4C2866
:1027A00017D068280DD06A2814D104E0742810D0FE
:1027B0007A280FD10DE044F400140AE044F48014A8
:1027C00001E044F440147278824202D104F580148E
:1027D000761C761C307866280BD013DC582877D00E
:1027E00009DC002875D04528F6D04628F4D04728C3
:1027F0001AD19DE118E0632835D0642879D0652886
:1028000012D195E1702873D008DC6728F1D06928CF
:102810006FD06E280DD06F2806D1B5E073282CD06C
:10282000752875D0782874D05A46179990476D1C32
:1028300075E1C4F30250022809D003280DD0D9F85D
:10284000001004280DD00D6009F1040967E1D9F8E2
:102850000010EA17C1E90052F6E7D9F800100D8020
:10286000F2E70D70F0E719F8041B8DF80010002056
:102870008DF80100EA46012003E059F804AB4FF05F
:10288000FF3061074FF0000102D40DE008F10101B3
:102890008846B9420FDA8045F8DB1AF8081000299B
:1028A000F4D108E008F1010188468142FADB1AF808
:1028B00008100029F6D105985B46A0EB08072146D1
:1028C0003846179A00F094FA284400EB080507E010
:1028D0004DE029E10DE01AF8010B5A46179990478F
:1028E000B8F10108F7D25B4621463846179A13E142
:1028F00042E00A220092C4F302524FF0000A022A78
:1029000008D059F804CB032A4FEAEC710AD00DE045
:1029100029E02AE009F1070121F00702F2E802C1EB
:10292000914609E00FFA8CFC4FEAEC71042A03D1BE
:102930004FFA8CFC4FEAEC71002907DA0A460021B5
:10294000DCF1000C61EB02012D2202E0220504D52E
:102950002B228DF80420012203E0E20701D020227F
:10296000F7E7904659E00A2102E010220DE010211D
:102970004FF0000A00910BE010224FF0000A44F0E3
:1029800004040827009203E008224FF0000A009296
:10299000C4F30252022A05D059F804CB0021032ABD
:1029A00008D009E009F1070121F00702F2E802C1AD
:1029B000914605E01FFA8CFC042A01D10CF0FF0CB3
:1029C0004FF00008220728D5702806D0009B83F01E
:1029D000100353EA0A0305D00EE040228DF80420CC
:1029E000012208E05CEA010206D030228DF80420C2
:1029F0008DF8050002229046009B83F0080353EAFD
:102A00000A030AD15CEA010201D1620705D530222E
:102A10008DF804204FF001087F1E582804D034A000
:102A200003900EA802900DE036A0F9E753466046E9
:102A3000009AFDF770FE84460398825C0298401E5F
:102A4000029002705CEA0100F0D1029806A9081A0F
:102A500000F1200A600702D524F4803400E0012749
:102A6000574502DDA7EB0A0000E0002000EB0A0159
:102A7000009005984144401A0590E00306D45B4657
:102A80002146179A059800F0B3F90544002706E09F
:102A900001A85A46C05D179990476D1C7F1C474599
:102AA000F6DBE0030CD55B462146179A059800F04B
:102AB0009FF9054404E030205A46179990476D1C51
:102AC0000099481E00900029F5DC08E00298029960
:102AD0005A460078491C0291179990476D1CBAF12B
:102AE0000001AAF1010AF1DC65E1000009280100FA
:102AF0003031323334353637383961626364656674
:102B00000000000030313233343536373839414235
:102B1000434445460000000000F058F90544761C87
:102B2000307800287FF4ECAD19B02846BDE8F08F6E
:102B3000620700D4062709F1070222F0070CFCE81F
:102B40000223E14603F000485FEA080C02D00FF2CE
:102B5000702C0DE05FEA045C02D50FF2682C07E0F0
:102B60005FEAC47C02D00FF2602C01E0AFF2700C7F
:102B70004FF0FF3823F00043CDF850C065280CD04B
:102B800006DC452809D046281DD047283DD13DE028
:102B9000662818D067287ED138E00021112F01DB8C
:102BA000112000E0781CCDE9000106A90EA8FFF76E
:102BB000DDFCDDE90F010E9A03910021009207F17F
:102BC000010A04914DE04FF000400097CDE901105B
:102BD00006A90EA8FFF7CAFCDDE90F0203920E9BBF
:102BE00011990022DDF80CA00093049211B9791C10
:102BF00000EB010AB7EB0A0004D4C0F1FF3007F183
:102C0000010A0490AAEB0700019044E0012F00DACA
:102C100001270021112F01DD112000E03846CDE908
:102C2000000106A90EA8FFF7A1FCDDE90F010E9A2D
:102C30000391002104910092BA4621070CD4039914
:102C4000514500DA8A46BAF1010F05DD009AAAF172
:102C50000101515C302908D0B84202DA10F1040FAA
:102C600006DA0121CDE9011015E0AAF10101E9E739
:102C7000002805DC049901440491AAEB000102E05C
:102C8000411C514500DD8A460499401A401C0190C0
:102C90004FF000400290200704D40198504501DB1A
:102CA000CDF8048000208DF84F0002980DF14F07F9
:102CB000B0F1004F25D02B200E9002984FF0020863
:102CC00000280CDA404202902D200E9007E00A21E5
:102CD0000298FDF70AFD3031029007F8011DB8F1A6
:102CE0000001A8F10108F2DC02980028EFD1791E5A
:102CF0000E980870307800F0200040F0450007F88A
:102D0000020D12A8C01B00F107081498007800B14A
:102D1000012000EB0A01019801EBE07105984144A4
:102D2000401A401E0590E00306D45B462146179AE0
:102D3000059800F05DF805441498007818B15A46DB
:102D4000179990476D1CE00324D55B462146179ADE
:102D5000059800F04DF805441CE00498002807DBB6
:102D6000DDE90301884203DD0098405C179901E02A
:102D7000179930205A469047049805F10105401CE8
:102D800004900198401E019004D12E205A461799B4
:102D900090476D1CBAF10001AAF1010ADDDC05E0E3
:102DA00017F8010B5A46179990476D1CB8F10001AE
:102DB000A8F10108F4DC5B462146179A0598ABE6BA
:102DC0002D0000002B000000200000002DE9F04144
:102DD000044600251E461746880404D405E03946FB
:102DE0002020B0476D1C641EF9D52846BDE8F0814F
:102DF0002DE9F041044600251E469046C80301D542
:102E0000302700E02027880404D505E041463846F5
:102E1000B0476D1C641EF9D52846BDE8F081014617
:102E200042F228324A434FF0E0235A6101221A61EC
:102E300000229A6100BF4FF0E022106900F0010209
:102E40001AB100F48032002AF5D000224FF0E023BE
:102E50001A619A61704700002DE9F04D894BCE0F41
:102E600021F0004784B005460C469F4230D3864887
:102E7000874211D3C7F31300284305D004B0284676
:102E8000BDE8F04DFFF749BB002E1ABF00200146F8
:102E9000284604B0BDE8F08D7C4A2846FDF778FD51
:102EA00007D20220FFF75CFB04B0BDE8F04DFFF74E
:102EB00037BB774A774B28462146FDF751FD07D2AD
:102EC0000220FFF74DFB04B0BDE8F04DFFF730BB2B
:102ED0007148B84248D27148874215D27048784448
:102EE00000EBC6002146D0E900232846FDF783FA0F
:102EF000CDE900016B48784400EBC600D0E900AB97
:102F0000C6F10100861B26E0674A684B2846214629
:102F1000FDF777FA664A7A4402EBC603D3E9002349
:102F2000FDF7C8F9FDF77AFB0646FDF759FB0746A2
:102F30008846604A604BFDF764FA2A462346FDF74F
:102F40005DFACDE900015D4A5D4B38464146FDF72B
:102F500058FA82468B46DDE9000152465B46FDF792
:102F60004AFA05460C4618E05648874214D2564A9B
:102F7000564B28462146FDF79DF9554E0022334613
:102F8000FDF706FD08D204B0334628462146BDE8C9
:102F9000F04D0022FDF78EB900262A462346104642
:102FA0001946FDF72EFA804602464A480F460B4660
:102FB00005217844FFF75CFA42463B46FDF721FACB
:102FC0002A462346FDF71AFA07468846E6B3024624
:102FD0000B4600204FF08041FDF70DFACDE90201CC
:102FE0003A46434628462146FDF70BFADDE902231F
:102FF000FDF779FA52465B46FDF700FADDE900235A
:10300000FDF7F9F90022324BFDF7F8F96FF47F7202
:103010009642A2BF01EB065104B0BDE8F08D4FF01F
:103020007A5202EB065211442B4AFDF76AFC044621
:103030000D46FFF709FA042808BFFFF779FA204682
:1030400004B02946BDE8F08DFFE700224FF0804331
:10305000FDF7D1F982460E463A46434628462146B8
:10306000FDF7CFF952463346FDF73DFA2A4623468F
:10307000FDF7C1F904B00022BDE8F04D144BFDF797
:10308000BDB90000422E86400000F07FEF39FAFE05
:1030900051302DD5104987C0422ED63FB2A2F03F05
:1030A000E6030000DE030000FE822B654715F73FB4
:1030B0009E0300000000E0FE422EE63F763C79359C
:1030C000EF39EA3D0000303E9C7500883CE4377ED5
:1030D0000000F03F3203000018FCFFFF70B504460B
:1030E0000D46E1B20548FFF79AF900BF40210348B9
:1030F000FFF7C7F80028F9D0204670BD003801401E
:10310000FEF794FB1020FEF785FC4FF4FA70FFF7F2
:1031100086FEFFF727F8FEF7DDF9FEF799F8FDF7D1
:10312000BFFCFDF7A1FFFDF799FFFDF7A9FF6421A3
:103130004FF41670FDF756FC02215548FEF77AF859
:1031400098B914220421C820FEF768F96322C82127
:103150000120FDF767FCFEF77DFA0446FEF774FADE
:1031600005462146FEF77CFA11E014220221C82010
:10317000FEF754F9632264210120FDF753FCFEF7AA
:1031800069FA0446214642F21070FEF769FAFEF72A
:10319000E1F900BF02213E48FEF74CF80028F9D0C3
:1031A00000BF02213A48FEF745F80028F9D1632212
:1031B00064210120FDF736FC69E0FEF79BF800284A
:1031C00065D134480078401CC0B2324908700A28E2
:1031D0003CD2DFE800F03B050B11171D23292F35EA
:1031E00000222D491046FDF777FC42E000221146EF
:1031F0002A48FDF771FC3CE0002229491046FDF702
:103200006BFC36E0002211462648FDF765FC30E0F5
:10321000002223491046FDF75FFC2AE000221146F8
:103220002148FDF759FC24E000221D491046FDF716
:1032300053FC1EE01D4A00211D48FDF74DFC18E01F
:1032400000221C491046FDF747FC12E000221146FF
:103250001046FDF741FC00200E490870FDF70AFFFB
:1032600006E002234FF47A7219460120FEF7F3F8C4
:10327000F7E700BF63230F2204210120FEF7EBF8DC
:1032800063221E210120FDF7CDFBFEF767FA94E7CC
:10329000000801400000002000803B4500409C45A4
:1032A00000006144000048C400004844000080BFA2
:1032B0000020CBC400806DC4000000000000E03F8F
:1032C000000000000000E0BF0000E0FE422EE63FEC
:1032D0000000E0FE422EE6BF763C7935EF39EA3D4C
:1032E000763C7935EF39EABD3E5555555555C53FC4
:1032F00093BDBE166CC166BF2CDE25AF6A56113F6A
:10330000F16BD2C541BDBBBED0A4BE726937663E6B
:10331000303300080000002058000000402500085D
:103320008833000858000020681D00005025000860
:1033300000000000983A0000A69BC43AC409960019
:1033400000000000000100000000803F00000000BD
:1033500000000000E803E803E80300006400000048
:10336000000000000000000000000000000000005D
:103370000102030401020304060708090204060807
:08338000000000000000000045
:04000005080000ED02
:00000001FF
